:1000000004308A00232C0000FF00030E8301A100AE
:100010000A08A0008A010408A2007708A300780853
:10002000A4007908A5007A08A600831383128C30F7
:100030008400001F1D280C1B2E2822088400230882
:10004000F7002408F8002508F9002608FA0020081F
:100050008A00210E8300FF0E7F0E09008A110A120A
:100060004E280A108A100A11820728340C340134F1
:100070000634483084008313000803194D280130EA
:10008000F800F701F70B4228F80B41284A30F70037
:10009000F70B48284B28800B3F280800DF308316D9
:1000A0008700831287166430C8003920DF3083163A
:1000B0008700831287126430C80039200C138A111C
:1000C0000A121D28D324C3204B26C9258A2AD923E6
:1000D0005526C126C12949000C32E933693A6136F7
:1000E000A01EA012EC3A2005F334E3306B36E9355C
:1000F000A01EA012AE18E6126300430EF039F700FE
:100100000F300605770486000000061487280610C5
:1001100008000608F700060E0F39F80008008316DD
:10012000061086100611831286100F3083160605FE
:10013000F03886008312061500000614000089209E
:100140007808C30006100000061400008920780813
:10015000C20006100F308316060586008312430E78
:10016000F700F030F70577084204F8007808C2007D
:10017000C21B9528401C86104018861400000611EA
:1001800000000610410EC2000F30C2054208C30035
:100190007D2041080F39C200C3007D2008000F30C8
:1001A0008316060586000610861006118312861037
:1001B00006110610A7018B1BA7178B130F30C80061
:1001C0003920A71B8B170130AE002E08033C031CFF
:1001D000F7280330C3007D20A7018B1BA7178B13C3
:1001E0000530C8003920A71B8B17AE0AE52802305E
:1001F000C3007D20A7018B1BA7178B130530C800F8
:100200003920A71B8B17AE012E08033C031C1129B4
:100210002E083120AF00C0012F08C1008F20AE0A88
:1002200004298A110A12562C3D0B17291A2940302D
:10023000BE001B29BE0101303C02BE073E088038CB
:10024000BF00C0013F08C1008F2008003B08073AEB
:10025000031934290B3A03193929063A0319472996
:10026000023A03194D2952290130BC00BD00142166
:100270005729C0010130C1008F20A7018B1BA71790
:100280008B130230C8003920A71B8B175729013068
:10029000BC000230BD0014215729C0011030C1003C
:1002A0008F2057290130C0003B08C1008F20080073
:1002B0000B08AE008B13831603178C170C14000069
:1002C000000083120C087F3903199F290313AF0024
:1002D00003170D080313B00003170F080313B10031
:1002E0002F08BB002621300803178D0003133108A7
:1002F00003178F0083168C170C1400000000831264
:100300000C0D0E0D7F3903199F290313AF0003173E
:100310000D080313B00003170F080313B1002F08D3
:10032000BB002621300803178D0003133108031783
:100330008F008D0A03198F0A03135B290317031318
:10034000AE1B8B178A110A125D2C8E30F7002F0816
:10035000F8002E08F900FA01F808031DB9297908F8
:10036000F800F9010830F702F808031DB929F70170
:10037000C1290310F81BC029F90DF80DF703B9299D
:10038000F8138A110A127B2C3B080319342AC30084
:100390003F080319342AC3070318D5297F30C30245
:1003A000031C342A0319342AD9298130C3070318BE
:1003B000342A4308F700F801F901FA013C08C700A4
:1003C000C7173D08C6003E08C5001830C300C40169
:1003D000451C022A4208FA07031CF429F90A031DE6
:1003E000F429F80A0319C4174108F907031CFB296B
:1003F000F80A0319C4174008BD00BD173D08F807E7
:100400000318C417C40DF80CF90CFA0CC70CC60C71
:10041000C50C0310C30BE7290130F7070318342A72
:10042000F81B192AC70DFA0DF90DF80DF70303197A
:10043000342AC71F2A2AFA0A031D2A2AF90A031D89
:100440002A2AF80A031D2A2AF80CF90CFA0CF70AD2
:100450000319342A3C08C4004008C406C41F322AC9
:10046000F817382AF813382AF701F801F901FA01C8
:1004700008000B08AF008B13831603178C170C149E
:100480000000000003186B2A83120C087F39031345
:10049000B00003170D080313B10003170F0803136F
:1004A000B2003008BB002621310803178D0003136A
:1004B000320803178F0083168C170C1400000000FD
:1004C00083120313AE0B652A682A831603176B2A5F
:1004D0008A2A8316031783120C0D0E0D7F3903131E
:1004E000B00003170D080313B10003170F0803131F
:1004F000B2003008BB002621310803178D0003131A
:10050000320803178F008D0A03198F0A0310031393
:10051000AE0B3C2AAF1B8B170800B6010408B500D0
:100520003610831B36142F0EF038B100B107E23EAF
:10053000B200323EB4002F080F39B207B207B40739
:10054000E93EB300B307B3072E0E0F39B307B40764
:10055000B30DB40DB409B40D2E080F39B407B10DA5
:100560000730B0000A30B407B303031CB32AB30743
:10057000B203031CB72AB207B103031CBB2AB1079D
:10058000B003031CBF2A30308400831307303505C5
:100590003513840734300402031935170008F700B7
:1005A000031DDA2A351BDA2A351AEC2AB519DA2A9C
:1005B0002030DD2AB51535123030F707AF010408B9
:1005C000AE002F10831B2F147708BB0026212E08A6
:1005D000840083132F188317840A351FCA2A8A11AF
:1005E0000A12BA2C8318F72A433084008313F701C8
:1005F000F801F901FA01C301C401C501C6014208AD
:10060000410440043F040319352B2030C700031078
:10061000BB0DBC0DBD0DBE0DC30DC40DC50DC60D6E
:1006200042084602031D1E2B41084502031D1E2BD6
:1006300040084402031D1E2B3F084302031C2F2BBE
:100640003F08C3024008031C400FC4024108031CBA
:10065000410FC5024208031C420FC6020314F70DE6
:10066000F80DF90DFA0DC70B072B43088000840A1B
:1006700044088000840A45088000840A46088000F7
:1006800008000408B3003208B5000319602B3108D4
:10069000BE003008BD002F08BC002E08BB00C20100
:1006A000C1012030C0008230BF00C4217A08B100EF
:1006B0007908B0007808AF007708AE00B50B472B7B
:1006C0003108BE003008BD002F08BC002E08BB005A
:1006D0003B08B63CBB00FA013C08BF00BC17031046
:1006E000BC0CBD0CBE0CFA0CF90CF80CF70CBB0BD7
:1006F0006F2BBF1F862BF709F809F909FA09F70ACA
:100700000319F80A0319F90A0319FA0A7A08B10059
:100710007908B0007808AF007708AE00B11F9D2BB4
:10072000B303B316AE09AF09B009B109AE0A031994
:10073000AF0A0319B00A0319B10A3B30BA009A3064
:10074000B900CA30B800B7010A30B5003208031941
:10075000B30A83142E30840083133108BE0030089E
:10076000BD002F08BC002E08BB003A08C2003908A3
:10077000C1003808C0003708BF00F2227808F70827
:10078000031DD52B320A35020319D52B3308031963
:10079000D72B0F3935020319CF2B0318072CB31BA6
:1007A000072C331BD72B2030032C2030B305B31E6E
:1007B000E52BB3123208031DB3037708B3002D30C5
:1007C000BB0026213308F700B30132083502031DB0
:1007D000F32B7708B3002E30BB0026213308F70037
:1007E0002030B30500303030B31E032CB312320872
:1007F000031DB3037708B3002D30BB002621330857
:10080000F700B3013030F7077708BB0026218310CB
:100810003A08BE003908BD003808BC003708BB00E4
:10082000C201C101C0010A30BF00F2227A08BA0039
:100830007908B9007808B8007708B700B50BA92B7C
:100840008A110A12D12C83161F149F141F159F1191
:1008500007309C0083131F3083050030860087001B
:10086000091489140915860183128601DF30831665
:1008700087008312870183161F109F101F119F117D
:100880002830F80083121F08C73978049F008316A8
:100890001F1383121F179F1383169F1783121F1492
:1008A00083160C17C03083128B04CF2862300317D5
:1008B0008D0000308F00031358290430AE00A701CB
:1008C0008B1BA7178B13FA30C8003920A71B8B1777
:1008D000AE0B5F2C0C30BB0026211F151F196E2C90
:1008E00083161E088312A8001E08A9002908AF005D
:1008F0002808AE00A5297A08BE007908BD0078084E
:10090000BC007708BB00C201C1012030C0007730B5
:10091000BF00C4217A08B1007908B0007808AF00A0
:100920007708AE007A08BE007908BD007808BC00E0
:100930007708BB00C201C1012030C0008230BF0077
:10094000C4217A08AD007908AC007808AB007708BC
:10095000AA006C3003178D0000308F0003100B309D
:100960000313AE003922103084002908AF00280894
:10097000AE008D2A733003178D0000308F000310F6
:100980000D300313AE003922893084002D08B100E8
:100990002C08B0002B08AF002A08AE000130B200CE
:1009A000412BDF30BB0026210430AE00A7018B1B9A
:1009B000A7178B13FA30C8003920A71B8B17AE0B73
:0609C000D62C6D2C630033
:02400E00313F40
:00000001FF
;PIC16F877A
;CRC=117B  CREATED="14-May-24 15:35"
