:04000000A4EF00F079
:08000800046ED8CF05F0E0CF33
:1000100006F00001E9CF0CF0EACF07F0E1CF08F0DD
:10002000E2CF09F0D9CF0AF0DACF0BF0F3CF12F01C
:10003000F4CF13F0FACF14F000C00EF001C00FF0AF
:1000400002C010F003C011F0F2A62AEF00F0F2B0E7
:100050005FEF00F00EC000F00FC001F010C002F022
:1000600011C003F00CC0E9FF07C0EAFF078E08C00B
:10007000E1FF09C0E2FF0AC0D9FF0BC0DAFF12C0DE
:10008000F3FF13C0F4FF14C0FAFF045006C0E0FFF2
:1000900005C0D8FF1000EA6A1A0EE96EEF500EE0B4
:1000A000010E016E006A002EFED7012EFBD74A0E0C
:1000B000006E002EFED700D0EF2EF2D71200946A09
:1000C0008B6A938881A80DD0000E946E8B88140ED5
:1000D000196EFA0E1A6EDFDF192EFBD7000E946E22
:1000E0008B98938A81AA0DD0000E946E8B8A140E81
:1000F000196EFA0E1A6ECFDF192EFBD7000E946E12
:100100008B9A938C81AC0DD0000E946E8B8C140E58
:10011000196EFA0E1A6EBFDF192EFBD7000E946E01
:100120008B9C938E81AE0DD0000E946E8B8E140E30
:10013000196EFA0E1A6EAFDF192EFBD7000E946EF1
:100140008B9EF2902AEF00F0F86AD09E078EC18055
:10015000C182C184C196F286C00EF212FF0E936E68
:10016000000E946E946A8B6A946A8B68040E176E04
:10017000166AF2BE168EF29EFA0E1A6E8CDF16BE4C
:10018000F28E172EF5D7946A8B6A040E176E166AD4
:10019000F2BE168EF29EFA0E1A6E7DDF16BEF28E3B
:0801A000172EF5D7E1D703008B
:020000040030CA
:0E00000000210C0E000181000FC00FE00F4028
:00000001FF
;PIC18F452
;CRC=ACF4  CREATED="29-Nis-24 16:00"
