:1000000000308A0019280000213084008313000882
:10001000031918280130F800F701F70B0D28F80B29
:100020000C284A30F700F70B13281628800B0A28F3
:10003000080083161F149F141F159F1107309C0082
:1000400083131F308305FF30850000308600860152
:1000500083128601831605148312051C3F28143071
:10006000A1000420831605148312051832281430C9
:10007000A1000420831686010530831286008316B2
:1000800005158312051D54281430A1000420831681
:1000900005158312051947281430A1000420831682
:0C00A00086010530831286002A286300C8
:02400E00313F40
:00000001FF
;PIC16F877A
;CRC=0EE1  CREATED="25-Mar-24 15:59"
