:1000000016EF00F0EA6A060EE96EEF500EE0010E00
:10001000016E006A002EFED7012EFBD74A0E006E3D
:10002000002EFED700D0EF2EF2D71200F86AD09E35
:10003000C180C182C184C196000E936EFF0E926E84
:10004000EF0E936E8A6A055201E0000E0550040817
:100050000EE3928280A2FDD7140E066ED3DF928249
:1000600080B2FDD7140E066ECDDF052AEFD7EF0E56
:08007000936E8A88E8D70300B3
:020000040030CA
:0E00000000210C0E000181000FC00FE00F4028
:00000001FF
;PIC18F452
;CRC=8816  CREATED="12-Mar-24 16:16"
