:1000000000308A001828000012308400000803190C
:10001000172801308D008C018C0B0C288D0B0B28C0
:100020004A308C008C0B12281528800B09280800F8
:100030001F308305003083168600860183128601F7
:10004000831686012130831286000C309100FA302D
:1000500092000420910B2728013090001008033CE7
:10006000031C4C288316860111308312860004304D
:100070009100FA3092000420910B392883168601F2
:1000800001308312860004309100FA30920004207F
:10009000910B4528900A2E28831686010930831279
:1000A000860004309100FA3092000420910B53280E
:1000B000831686010A308312860004309100FA30DC
:1000C00092000420910B5F28831686010C30831266
:1000D00086009100FA3092000420910B6A280130CA
:1000E00090001008033C031C8F28831686010A30F9
:1000F0008312860004309100FA3092000420910BA4
:100100007C28831686010830831286000430910013
:10011000FA3092000420910B8828900A71288316E7
:10012000860109308312860004309100FA30920073
:100130000420910B962883168601113083128600C5
:1001400004309100FA3092000420910BA22883160B
:1001500086012130831286000C309100FA30920023
:0A0160000420910BAE281A2863005A
:02400E00F13F80
:00000001FF
;PIC16F84A
;CRC=5936  CREATED="12-Mar-24 14:33"
