:1000000000308A0042280000B40134087C3C031C04
:100010004128B5013508043C031C3F283508360744
:1000200084008313371883170008B80083168601ED
:1000300083123808860020303507840083130008B7
:10004000B800C03083168700831238088700193043
:10005000B800383084008313000803193D280130AC
:10006000F800F701F70B3228F80B31284A30F70077
:10007000F70B38283B28800B2F28B50A0A28B40A2A
:100080000528080083161F149F141F159F110730A1
:100090009C0083131F30830510308312A0000830AA
:1000A000A1000430A2000230A3000130A40080307F
:1000B000A500F730A600EB30A700DD30A800BE3069
:1000C000A900FE30AA00AB008030AC00FE30AD00CD
:1000D000AE00C030AF00BF30B000B100B200C030E1
:1000E000B3000030831687008600860183128601E4
:1000F000C0308316870083128701B7012530B60010
:100100000420B7012A30B6000420B7012F30B60012
:0601100004207D286300BD
:02400E00313F40
:00000001FF
;PIC16F877A
;CRC=EBDB  CREATED="25-Mar-24 15:31"
