:1000000000308A0019280000213084008313000882
:10001000031918280130F800F701F70B0D28F80B29
:100020000C284A30F700F70B13281628800B0A28F3
:100030000800A00183161F149F141F159F1107307D
:100040009C0083131F308305FF308500003086003D
:10005000860183128601831686010530831286008D
:10006000831605148312051C68281430A10004208F
:1000700083160514831205183828A00A83168601F2
:1000800005308312860020080A3C031D682864306E
:10009000A1000420A00803196828831686011830DF
:1000A00083128600831685148312851C67281430FA
:1000B000A100042083168514831285185A28143051
:1000C000A1000420A001C830A10004202B284A2848
:0400D0002B28630076
:02400E00313F40
:00000001FF
;PIC16F877A
;CRC=DDB5  CREATED="26-Mar-24 15:49"
