:1000000000308A006C280000FF00030E8301A1006D
:100010000A08A0008A010408A2007708A300780853
:10002000A4007908A5007A08A600831383128C30F7
:100030008400001C1D280C182E2822088400230888
:10004000F7002408F8002508F9002608FA0020081F
:100050008A00210E8300FF0E7F0E09008A110A120A
:1000600046282930840083130008031945280130ED
:10007000F800F701F70B3A28F80B39284A30F70057
:10008000F70B40284328800B372808000130A707CA
:100090002708023C031D6328A8012808043C031C10
:1000A000622883168601FF30831286006430A9001F
:1000B000312083168601831286016430A900312025
:1000C000A80A4D28A7018E010B308F00DC308E006E
:1000D0000C108A110A121D2883161F149F141F1555
:1000E0009F1107309C0083131F3083058312A701E3
:1000F000003083168600860183128601B530900099
:100100008E010B308F00DC308E0083160C14C03053
:0801100083128B048A286300AE
:02400E00313F40
:00000001FF
;PIC16F877A
;CRC=58CB  CREATED="20-May-24 15:55"
