:1000000000308A005B280000FF00030E8301A1007E
:100010000A08A0008A010408A2007708A300780853
:10002000A4007908A5007A08A600831383128C30F7
:100030008400001C1D280C182E2822088400230888
:10004000F7002408F8002508F9002608FA0020081F
:100050008A00210E8300FF0E7F0E09008A110A120A
:1000600031280130A7072708103C0319A701831680
:1000700086018312270886006430A8002830840097
:1000800083130008031952280130F800F701F70B19
:100090004728F80B46284A30F700F70B4D28502820
:1000A000800B44288E01FF308F00FB308E000C1037
:1000B0008A110A121D2883161F149F141F159F11E1
:1000C00007309C0083131F3083058312A701003083
:1000D000831686008601831286018E01FF308F0011
:1000E000FB308E008730900083160C14C0308312D2
:0600F0008B047928630077
:02400E00313F40
:00000001FF
;PIC16F877A
;CRC=3F73  CREATED="20-May-24 15:32"
