:1000000003308A00D42B00000A108A100A118207DC
:1000100028340C34013406340C10CD32F330E6327F
:10002000A01EA0122E1966106D00343084008313B8
:100030000008031929280130F800F701F70B1E28E2
:10004000F80B1D284A30F700F70B24282728800BCF
:100050001B2808003B0EF039F7000F300805770425
:100060008800000008143428081008000808F70069
:10007000080E0F39F80008008316081088100811C0
:10008000831288100F3083160805F0388800831219
:10009000081500000814000036207808BB0008107E
:1000A00000000814000036207808BA0008100F304D
:1000B00083160805880083123B0EF700F030F70521
:1000C00077083A04F8007808BA00BA1B4228381CAE
:1000D0008810381888140000081100000810390E24
:1000E000BA000F30BA053A08BB002A2039080F3988
:1000F000BA00BB002A2008000F30831608058800CC
:1001000008108810081183128810081108100F3089
:10011000B40015200130A6002608033C031C9828D3
:100120000330BB002A200530B4001520A60A8C2815
:100130000230BB002A200530B4001520A601260895
:10014000033C031CAC2826080420A700B80127089C
:10015000B9003C20A60A9F288A110A12E62B8E308D
:10016000F7002708F8002608F900FA01F808031D2F
:10017000C3287908F800F9010830F702F808031DD0
:10018000C328F701CB280310F81BCA28F90DF80D76
:10019000F703C328F8138A110A12152C3308031920
:1001A0003E29BB00370803193E29BB070318DF2887
:1001B0007F30BB02031C3E2903193E29E32881300E
:1001C000BB0703183E293B08F700F801F901FA01C3
:1001D0003408BF00BF173508BE003608BD00183010
:1001E000BB00BC013D1C0C293A08FA07031CFE2881
:1001F000F90A031DFE28F80A0319BC173908F90784
:10020000031C0529F80A0319BC173808B500B517EF
:100210003508F8070318BC17BC0DF80CF90CFA0CDC
:10022000BF0CBE0CBD0C0310BB0BF1280130F7074F
:1002300003183E29F81B2329BF0DFA0DF90DF80DFF
:10024000F70303193E29BF1F3429FA0A031D342975
:10025000F90A031D3429F80A031D3429F80CF90C96
:10026000FA0CF70A03193E293408BC003808BC060A
:10027000BC1F3C29F8174229F8134229F701F8015D
:10028000F901FA0108002A080319082AB6002E0805
:100290000319082AB602031C52297F30B607031837
:1002A000082A58298130B602031C082A0319082A93
:1002B0003608F700F801F901FA01B5012B08B4007E
:1002C000B4172C08B3002D08B2001930B60031085D
:1002D000B20203187B290130B30203187B29B40250
:1002E00003187B29B50203187B29B50AB40AB30A9F
:1002F0003108B207AD293008B3020318962901303E
:10030000B40203189629B50203189629B50AB40A4F
:100310003008B3073108B207031CAD29B30A031D27
:10032000AD29B40A031DAD29B50AAD292F088038BF
:10033000B4020318AC290130B5020318AC29B50A80
:100340002F088038B4073008B307031C8A29B40A81
:10035000031D8A29B50A8A297A14B60BB029BB294C
:100360000310B20DB30DB40DB50D0310FA0DF90D58
:10037000F80DB70D6729371CC3290310F80CF90CC9
:10038000FA0CB70CC629F7030319082AB71BEF2983
:100390000310B20DB30DB40DB50D3108B202031840
:1003A000DB290130B3020318DB29B4020318DB296F
:1003B000B502031CFE293008B3020318E6290130F8
:1003C000B4020318E629B502031CFE292F08803861
:1003D000B4020318EF290130B502031CFE29FA0A02
:1003E000031DFE29F90A031DFE29F80A031DFE2933
:1003F000F70A0319082AF80CF90CFA0C2B08B600B6
:100400002F08B606B61F062AF8170C2AF8130C2A6E
:10041000F701F801F901FA018A110A123C2C350B97
:10042000122A152A4030B600162AB60101303402CD
:10043000B60736088038B700B8013708B9003C2045
:1004400008003308073A03192F2A0B3A0319342AF4
:10045000063A03193C2A023A0319422A472A013074
:10046000B400B5000F224C2AB8010130B9003C207D
:100470000230B40015204C2A0130B4000230B5001F
:100480000F224C2AB8011030B9003C204C2A013010
:10049000B8003308B9003C2008000B08A7008B13F4
:1004A000831603178C170C140000000003187F2A12
:1004B00083120C087F390313A80003170D080313D8
:1004C000A90003170F080313AA002808B30021226C
:1004D000290803178D0003132A0803178F008316BA
:1004E0008C170C140000000083120313A60B792A4A
:1004F0007C2A831603177F2A9E2A831603178312EA
:100500000C0D0E0D7F390313A80003170D080313FC
:10051000A90003170F080313AA002808B30021221B
:10052000290803178D0003132A0803178F008D0A6B
:1005300003198F0A03100313A60B502AA71B8B174E
:100540008A110A124E2C8318A82A3B308400831388
:10055000F701F801F901FA01BB01BC01BD01BE01BF
:100560003A083904380437040319E62A2030BF005A
:100570000310B30DB40DB50DB60DBB0DBC0DBD0D07
:10058000BE0D3A083E02031DCF2A39083D02031D65
:10059000CF2A38083C02031DCF2A37083B02031C30
:1005A000E02A3708BB023808031C380FBC023908A0
:1005B000031C390FBD023A08031C3A0FBE02031494
:1005C000F70DF80DF90DFA0DBF0BB82A3B088000A6
:1005D000840A3C088000840A3D088000840A3E08A2
:1005E000800008000408AB002A08AD000319112B95
:1005F0002908B6002808B5002708B4002608B3006B
:10060000BA01B9012030B8008230B700CE207A0894
:10061000A9007908A8007808A7007708A600AD0B04
:10062000F82A2908B6002808B5002708B4002608CB
:10063000B3003308B63CB300FA013408B700B4176E
:100640000310B40CB50CB60CFA0CF90CF80CF70C42
:10065000B30B202BB71F372BF709F809F909FA0953
:10066000F70A0319F80A0319F90A0319FA0A7A08AA
:10067000A9007908A8007808A7007708A600A91F94
:100680004E2BAB03AB16A609A709A809A909A60A10
:100690000319A70A0319A80A0319A90A3B30B200D3
:1006A0009A30B100CA30B000AF010A30AD002A085C
:1006B0000319AB0A83142630840083132908B6007B
:1006C0002808B5002708B4002608B3003208BA008D
:1006D0003108B9003008B8002F08B700A322780805
:1006E000F708031D862B2A0A2D020319862B2B08D7
:1006F0000319882B0F392D020319802B0318B82BEF
:10070000AB1BB82B2B1B882B2030B42B2030AB0518
:10071000AB1E962BAB122A08031DAB037708AB0068
:100720002D30B30021222B08F700AB012A082D023F
:10073000031DA42B7708AB002E30B30021222B0819
:10074000F7002030AB0500303030AB1EB42BAB12BD
:100750002A08031DAB037708AB002D30B30021221C
:100760002B08F700AB013030F7077708B3002122E0
:1007700083103208B6003108B5003008B4002F08E5
:10078000B300BA01B901B8010A30B700A3227A0850
:10079000B2007908B1007808B0007708AF00AD0B5F
:1007A0005A2B8A110A125B2C83161F149F141F15D3
:1007B0009F1107309C0083131F3083050030880091
:1007C000880183128801853090007C28FE308316D2
:1007D0008600831206140430F700F70BED2BF02B84
:1007E000FE308316860083120610FE3083168600C4
:1007F0008312061EF52B8E018F018E01FE308316AB
:1008000086008312061AFE2B0F08FA000E08F70066
:100810000F087A02031D042C7708A0007A08A100B3
:100820002108A7002008A600AF280730B6004230F4
:10083000B5003230B4007330B3007A08BA007908DA
:10084000B9007808B8007708B700CE207A08A90068
:100850007908A8007808A7007708A6007A08AD00F4
:100860007908AC007808AB007708AA00B101B001A4
:10087000AF018030AE0043297A08A5007908A400B2
:100880007808A3007708A2000C3003178D00003011
:100890008F0003100B300313A6004D2A893084000B
:1008A0002508A9002408A8002308A7002208A600FC
:1008B0000230AA00F22A2030B30021226D30B300AA
:1008C00021220230A600FA30B4001520A60B632CBA
:0408D000E62B6300B0
:02400E00313F40
:00000001FF
;PIC16F877A
;CRC=BF7B  CREATED="27-May-24 15:58"
