:1000000016EF00F0EA6A100EE96EEF500EE0010EF6
:10001000016E006A002EFED7012EFBD74A0E006E3D
:10002000002EFED700D0EF2EF2D71200F86AD09E35
:10003000046AC180C182C184C196FF0E926E000E17
:10004000936E946A8B6A3F0E056E060E066E5B0E0B
:10005000076E4F0E086E660E096E6D0E0A6E7D0EEF
:100060000B6E070E0C6E7F0E0D6E6F0E0E6E770E02
:100070000F6E036A0450050FE96E000E0320EA6E4E
:10008000EFCF10F0946A10C08BFF80A019D0140E2F
:10009000106EB8DF042A04500B0801E1046A036AF9
:1000A0000450050FE96E000E0320EA6EEFCF10F04A
:1000B000946A10C08BFF80B0FED7140E106EA2DFC2
:1000C00080A21AD0140E106E9DDF04060450FF08A3
:1000D00002E10A0E046E036A0450050FE96E000E79
:1000E0000320EA6EEFCF10F0946A10C08BFF80B24D
:0C00F000FED7140E106E86DFC8D7030088
:020000040030CA
:0E00000000210C0E000181000FC00FE00F4028
:00000001FF
;PIC18F452
;CRC=96A5  CREATED="19-Mar-24 11:20"
