:1000000016EF00F0EA6A070EE96EEF500EE0010EFF
:10001000016E006A002EFED7012EFBD74A0E006E3D
:10002000002EFED700D0EF2EF2D71200F86AD09E35
:10003000C180C182C184C196000E936E936A8A6AA0
:10004000010E056E936A05C08AFF020E066EFA0E57
:10005000076ED8DF062EFBD7D890053605508008EE
:100060001DE1936A05C08AFF020E066EFA0E076E46
:10007000C9DF062EFBD7D8900532936A05C08AFFE8
:10008000020E066EFA0E076EBDDF062EFBD7052C9C
:1000900004D0936A05C08AFFD5D7E6D7D3D703002B
:020000040030CA
:0E00000000210C0E000181000FC00FE00F4028
:00000001FF
;PIC18F452
;CRC=E4AA  CREATED="05-Mar-24 16:25"
