:1000000017EF00F0EA6A0E0EE96EEF500EE0010EF7
:10001000016E006A002EFED7012EFBD74A0E006E3D
:10002000002EFED700D0EF2EF2D748EF00F0F86A8E
:10003000D09EC180C182C184C196010E056E030E9F
:10004000066E020E076E060E086E040E096E0C0E8A
:100050000A6E080E0B6E090E0C6EFF0E926E000EED
:10006000946E946A8B6A046A0450070815E3036A65
:100070000450050FE96E000E0320EA6EEFCF0DF07D
:10008000946A0DC08BFF020E0D6EFA0E0E6EBAD77B
:0C0090000D2EFBD7042AE8D7E6D70300AA
:020000040030CA
:0E00000000210C0E000181000FC00FE00F4028
:00000001FF
;PIC18F452
;CRC=B2F8  CREATED="22-Nis-24 15:35"
