:1000000000308A0019280000233084008313000880
:10001000031918280130F800F701F70B0D28F80B29
:100020000C284A30F700F70B13281628800B0A28F3
:100030000800FF30A10083161F149F141F159F1185
:1000400007309C0083131F308305FF30850000308C
:10005000860088008312A10083168701831287011E
:100060008316880183128801831605148312051CE8
:100070008D28831605148312051839281430A3001F
:100080000420003083168600831286150830A200F3
:10009000FA30A3000420A20B482800308316860003
:1000A00083128611A0012008023C031C7C288316C1
:1000B00086010530831286000C30A200FA30A300BE
:1000C0000420A20B5E288316860106308312860068
:1000D0000C30A200FA30A3000420A20B6A28831679
:1000E0008601831286010230A200FA30A3000420A8
:1000F000A20B7528A00A53280030831686008312AD
:1001000006160830A200FA30A3000420A20B8328B0
:0E011000003083168600831206123428630026
:02400E00313F40
:00000001FF
;PIC16F877A
;CRC=2240  CREATED="26-Mar-24 15:03"
