:100000004CEF00F04A50016A495C03E249C000F03D
:100010000CD0006A080E4B6E493600364A50005C20
:10002000D8B0006E01364B2EF7D71200016A026A73
:10003000006A036A4E5002E14D5018E0100E4F6EF8
:10004000D8904B364C36003603364E50035C02E1F6
:100050004D50005C07E34D50005ED8A003064E50A3
:10006000035ED880013602364F2EEAD7B4EF00F097
:10007000EA6A490EE96EEF500EE0010E016E006A69
:10008000002EFED7012EFBD74A0E006E002EFED7A3
:1000900000D0EF2EF2D71200F86AD09E486AC180D5
:1000A000C182C184C19620D03C000410001100120E
:1000B00000130014001500160017001800190000A6
:1000C000002100220023002400250026002700280C
:1000D0000029004000410042004300440045004622
:1000E0000047004800490000000EF86E000EF76E51
:1000F000A80EF66E0900F550006E000A13E0090024
:10010000F550016EE8BE05D00F0BEA6E0900F5CF81
:10011000E9FF01BC090001AC0900F5CFEEFF004E7C
:10012000E9D7F9D7F86AFF0E926E000E946E800E32
:10013000946E8B6A48C049F00A0E4A6E63DF416ACA
:1001400000C040F048C049F0640E4A6E5BDF40508A
:10015000005C496E000E41544A6E4C6E49C04BF033
:100160004E6A0A0E4D6E62D702C043F001C042F0E3
:1001700048C049F0640E4A6E45DF456A01C044F04C
:10018000476A466A47524CE14650180849E30D0E4B
:10019000496E6EDFD8904034026E4134036E0250D7
:1001A0002C0FE96E000E0320EA6EECCF4AF0ED5200
:1001B000EFCF49F0800E946E49C08BFF0D0E496E53
:1001C00057DFD8904234026E4334036E0250180F4A
:1001D000E96E000E0320EA6EECCF4AF0ED52EFCF4D
:1001E00049F0800E946E49C08BFF0D0E496E40DFC2
:1001F000D8904434026E4534036E0250040FE96E09
:10020000000E0320EA6EECCF4AF0ED52EFCF49F03A
:10021000800E946E49C08BFF462AD8B4472AB2D7C5
:06022000482A88D7030004
:020000040030CA
:0E00000000210C0E000181000FC00FE00F4028
:00000001FF
;PIC18F452
;CRC=4C97  CREATED="19-Mar-24 16:02"
